


ARM Macro Assembler    Page 1 


    1 00000000         ;   The following is an assembler optimised version of t
                       he LPC filtering
    2 00000000         ;   routines needed for FLAC decoding. It is optimised f
                       or use with ARM 
    3 00000000         ;   processors.
    4 00000000         ;   All LPC filtering up to order 9 is done in specially
                        optimised unrolled
    5 00000000         ;   loops, while every order above this is handled by a 
                       slower default routine.
    6 00000000         
    7 00000000                 PRESERVE8
    8 00000000                 THUMB
    9 00000000                 AREA             LPC_DECODE, CODE, READONLY
   10 00000000         
   11 00000000                 EXPORT           lpc_decode_arm
   12 00000000         lpc_decode_arm
   13 00000000 E92D 4FF0       stmdb            sp!, { r4-r11, lr }
   14 00000004 9C09            ldr              r4, [sp, #36]
   15 00000006         ; r0 = blocksize, r1 = qlevel, r2 = pred_order
   16 00000006         ;   r3 = data, r4 = coeffs
   17 00000006         
   18 00000006         ; the data pointer always lags behind history pointer by
                        'pred_order'
   19 00000006         ;   samples. since we have one loop for each order, we c
                       an hard code this
   20 00000006         ;  and free a register by not saving data pointer. 
   21 00000006         
   22 00000006 EBA3 0382       sub              r3, r3, r2, lsl #2 
                                                            ; r3 = history
   23 0000000A 2800            cmp              r0, #0      ; no samples to pro
                                                            cess
   24 0000000C F000 8149       beq.w            exit
   25 00000010 2A09            cmp              r2, #9      ; check if order is
                                                             too high for unrol
                                                            led loops
   26 00000012 F300 8103       bgt.w            default
   27 00000016 4DA4            ldr              r5, =jumptable1 ; jump to our u
                                                            nrolled decode loop
                                                             if it exists
   28 00000018 EB05 0582       add              r5, r5, r2, lsl #2
   29 0000001C 682A            ldr              r2, [r5]
   30 0000001E 4710            bx               r2
   31 00000020         
   32 00000020         jumptable1
   33 00000020 00000000        dcd              exit        ; zero order filter
                                                             isn't possible, ex
                                                            it function
   34 00000024 00000000        dcd              order1
   35 00000028 00000000        dcd              order2
   36 0000002C 00000000        dcd              order3
   37 00000030 00000000        dcd              order4
   38 00000034 00000000        dcd              order5
   39 00000038 00000000        dcd              order6
   40 0000003C 00000000        dcd              order7
   41 00000040 00000000        dcd              order8
   42 00000044 00000000        dcd              order9
   43 00000048         
   44 00000048         ; last jump table entry coincides with target, so leave 
                       it out



ARM Macro Assembler    Page 2 


   45 00000048         order9
   46 00000048 E894 5FE0       ldmia            r4, { r5-r12, r14 } 
                                                            ; fetch coefs
   47 0000004C         loop9
   48 0000004C F853 4B04       ldr              r4, [r3], #4 ; load first histo
                                                            ry sample
   49 00000050 FB04 F20E       mul              r2, r4, r14 ; multiply with las
                                                            t coef
   50 00000054 F853 4B04       ldr              r4, [r3], #4 ; rinse and repeat
                                                             while accumulating
                                                             sum in r2
   51 00000058 FB04 220C       mla              r2, r4, r12, r2
   52 0000005C F853 4B04       ldr              r4, [r3], #4
   53 00000060 FB04 220B       mla              r2, r4, r11, r2
   54 00000064 F853 4B04       ldr              r4, [r3], #4
   55 00000068 FB04 220A       mla              r2, r4, r10, r2
   56 0000006C F853 4B04       ldr              r4, [r3], #4
   57 00000070 FB04 2209       mla              r2, r4, r9, r2
   58 00000074 F853 4B04       ldr              r4, [r3], #4
   59 00000078 FB04 2208       mla              r2, r4, r8, r2
   60 0000007C F853 4B04       ldr              r4, [r3], #4
   61 00000080 FB04 2207       mla              r2, r4, r7, r2
   62 00000084 F853 4B04       ldr              r4, [r3], #4
   63 00000088 FB04 2206       mla              r2, r4, r6, r2
   64 0000008C F853 4B04       ldr              r4, [r3], #4
   65 00000090 FB04 2205       mla              r2, r4, r5, r2
   66 00000094 681C            ldr              r4, [r3]    ; r4 = residual
   67 00000096 FA42 F201       asr              r2, r1
   68 0000009A 4422            add              r2, r4, r2  ; shift sum by qlev
                                                            el bits and add res
                                                            idual 
   69 0000009C F843 2920       str              r2, [r3], #-8*4 ; save result a
                                                            nd wrap history poi
                                                            nter back
   70 000000A0 1E40            subs             r0, r0, #1  ; check if we're do
                                                            ne
   71 000000A2 D1D3            bne              loop9       ; nope, jump back
   72 000000A4 E0FD            b                exit
   73 000000A6         
   74 000000A6         order8
   75 000000A6 E894 1FE0       ldmia            r4, { r5-r12 }
   76 000000AA         loop8
   77 000000AA         ; we have more registers to spare here, so start block r
                       eading
   78 000000AA E8B3 4010       ldmia            r3!, { r4, r14 }
   79 000000AE FB04 F20C       mul              r2, r4, r12
   80 000000B2 FB0E 220B       mla              r2, r14, r11, r2
   81 000000B6 E8B3 4010       ldmia            r3!, { r4, r14 }
   82 000000BA FB04 220A       mla              r2, r4, r10, r2
   83 000000BE FB0E 2209       mla              r2, r14, r9, r2
   84 000000C2 E8B3 4010       ldmia            r3!, { r4, r14 }
   85 000000C6 FB04 2208       mla              r2, r4, r8, r2
   86 000000CA FB0E 2207       mla              r2, r14, r7, r2
   87 000000CE E8B3 4010       ldmia            r3!, { r4, r14 }
   88 000000D2 FB04 2206       mla              r2, r4, r6, r2
   89 000000D6 FB0E 2205       mla              r2, r14, r5, r2
   90 000000DA 681C            ldr              r4, [r3]
   91 000000DC FA42 F201       asr              r2, r1
   92 000000E0 4422            add              r2, r4, r2



ARM Macro Assembler    Page 3 


   93 000000E2 F843 291C       str              r2, [r3], #-7*4
   94 000000E6 1E40            subs             r0, r0, #1
   95 000000E8 D1DF            bne              loop8
   96 000000EA E0DA            b                exit
   97 000000EC         
   98 000000EC         order7
   99 000000EC E894 0FE0       ldmia            r4, { r5-r11 }
  100 000000F0         loop7
  101 000000F0 E8B3 5010       ldmia            r3!, { r4, r12, r14 }
  102 000000F4 FB04 F20B       mul              r2, r4, r11
  103 000000F8 FB0C 220A       mla              r2, r12, r10, r2
  104 000000FC FB0E 2209       mla              r2, r14, r9, r2
  105 00000100 E8B3 5010       ldmia            r3!, { r4, r12, r14 }
  106 00000104 FB04 2208       mla              r2, r4, r8, r2
  107 00000108 FB0C 2207       mla              r2, r12, r7, r2
  108 0000010C FB0E 2206       mla              r2, r14, r6, r2
  109 00000110 F853 4B04       ldr              r4, [r3], #4
  110 00000114 FB04 2205       mla              r2, r4, r5, r2
  111 00000118 681C            ldr              r4, [r3]
  112 0000011A FA42 F201       asr              r2, r1
  113 0000011E 4422            add              r2, r4, r2
  114 00000120 F843 2918       str              r2, [r3], #-6*4
  115 00000124 1E40            subs             r0, r0, #1
  116 00000126 D1E3            bne              loop7
  117 00000128 E0BB            b                exit
  118 0000012A         
  119 0000012A         order6
  120 0000012A E894 07E0       ldmia            r4, { r5-r10 }
  121 0000012E         loop6
  122 0000012E E8B3 5810       ldmia            r3!, { r4, r11-r12, r14 }
  123 00000132 FB04 F20A       mul              r2, r4, r10
  124 00000136 FB0B 2209       mla              r2, r11, r9, r2
  125 0000013A FB0C 2208       mla              r2, r12, r8, r2
  126 0000013E FB0E 2207       mla              r2, r14, r7, r2
  127 00000142 E8B3 0810       ldmia            r3!, { r4, r11 }
  128 00000146 FB04 2206       mla              r2, r4, r6, r2
  129 0000014A FB0B 2205       mla              r2, r11, r5, r2
  130 0000014E 681C            ldr              r4, [r3]
  131 00000150 FA42 F201       asr              r2, r1
  132 00000154 4422            add              r2, r4, r2
  133 00000156 F843 2914       str              r2, [r3], #-5*4
  134 0000015A 1E40            subs             r0, r0, #1
  135 0000015C D1E7            bne              loop6
  136 0000015E E0A0            b                exit
  137 00000160         
  138 00000160         order5
  139 00000160 E894 03E0       ldmia            r4, { r5-r9 }
  140 00000164         loop5
  141 00000164 E8B3 5C10       ldmia            r3!, { r4, r10-r12, r14 }
  142 00000168 FB04 F209       mul              r2, r4, r9
  143 0000016C FB0A 2208       mla              r2, r10, r8, r2
  144 00000170 FB0B 2207       mla              r2, r11, r7, r2
  145 00000174 FB0C 2206       mla              r2, r12, r6, r2
  146 00000178 FB0E 2205       mla              r2, r14, r5, r2
  147 0000017C 681C            ldr              r4, [r3]
  148 0000017E FA42 F201       asr              r2, r1
  149 00000182 4422            add              r2, r4, r2
  150 00000184 F843 2910       str              r2, [r3], #-4*4
  151 00000188 1E40            subs             r0, r0, #1



ARM Macro Assembler    Page 4 


  152 0000018A D1EB            bne              loop5
  153 0000018C E089            b                exit
  154 0000018E         
  155 0000018E         order4
  156 0000018E E894 01E0       ldmia            r4, { r5-r8 }
  157 00000192         loop4
  158 00000192 E8B3 5810       ldmia            r3!, { r4, r11-r12, r14 }
  159 00000196 FB04 F208       mul              r2, r4, r8
  160 0000019A FB0B 2207       mla              r2, r11, r7, r2
  161 0000019E FB0C 2206       mla              r2, r12, r6, r2
  162 000001A2 FB0E 2205       mla              r2, r14, r5, r2
  163 000001A6 681C            ldr              r4, [r3]
  164 000001A8 FA42 F201       asr              r2, r1
  165 000001AC 4422            add              r2, r4, r2
  166 000001AE F843 290C       str              r2, [r3], #-3*4
  167 000001B2 1E40            subs             r0, r0, #1
  168 000001B4 D1ED            bne              loop4
  169 000001B6 E074            b                exit
  170 000001B8         
  171 000001B8         order3
  172 000001B8 E894 00E0       ldmia            r4, { r5-r7 }
  173 000001BC         loop3
  174 000001BC E8B3 5010       ldmia            r3!, { r4, r12, r14 }
  175 000001C0 FB04 F207       mul              r2, r4, r7
  176 000001C4 FB0C 2206       mla              r2, r12, r6, r2
  177 000001C8 FB0E 2205       mla              r2, r14, r5, r2
  178 000001CC 681C            ldr              r4, [r3]
  179 000001CE FA42 F201       asr              r2, r1
  180 000001D2 4422            add              r2, r4, r2
  181 000001D4 F843 2908       str              r2, [r3], #-2*4
  182 000001D8 1E40            subs             r0, r0, #1
  183 000001DA D1EF            bne              loop3
  184 000001DC E061            b                exit
  185 000001DE         
  186 000001DE         order2
  187 000001DE E894 0060       ldmia            r4, { r5-r6 }
  188 000001E2         loop2
  189 000001E2 E8B3 4010       ldmia            r3!, { r4, r14 }
  190 000001E6 FB04 F206       mul              r2, r4, r6
  191 000001EA FB0E 2205       mla              r2, r14, r5, r2
  192 000001EE 681C            ldr              r4, [r3]
  193 000001F0 FA42 F201       asr              r2, r1
  194 000001F4 4422            add              r2, r4, r2
  195 000001F6 F843 2904       str              r2, [r3], #-1*4
  196 000001FA 1E40            subs             r0, r0, #1
  197 000001FC D1F1            bne              loop2
  198 000001FE E050            b                exit
  199 00000200         
  200 00000200         order1
  201 00000200 6825            ldr              r5, [r4]    ; load the one coef
                                                             we need
  202 00000202 F853 4B04       ldr              r4, [r3], #4 ; load one history
                                                             sample, r3 now poi
                                                            nts to residual
  203 00000206         loop1
  204 00000206 FB04 F205       mul              r2, r4, r5  ; multiply coef by 
                                                            history sample
  205 0000020A 681C            ldr              r4, [r3]    ; load residual
  206 0000020C FA42 F201       asr              r2, r1



ARM Macro Assembler    Page 5 


  207 00000210 4414            add              r4, r4, r2  ; add result to res
                                                            idual
  208 00000212 F843 4B04       str              r4, [r3], #4 ; place r3 at next
                                                             residual, we alrea
                                                            dy have 
  209 00000216 1E40            subs             r0, r0, #1  ; the current sampl
                                                            e in r4 for the nex
                                                            t iteration
  210 00000218 D1F5            bne              loop1
  211 0000021A E042            b                exit
  212 0000021C         
  213 0000021C         default
  214 0000021C         ; we do the filtering in an unrolled by 4 loop as far as
                        we can, and then
  215 0000021C         ;   do the rest by jump table. 
  216 0000021C EB04 0582       add              r5, r4, r2, lsl #2 ; need to st
                                                            art in the other en
                                                            d of coefs
  217 00000220 EA4F 0792       mov              r7, r2, lsr #2 ; r7 = coefs/4
  218 00000224 F04F 0E00       mov              r14, #0     ; init accumulator
  219 00000228         dloop1
  220 00000228 E935 0F00       ldmdb            r5!, { r8-r11 }
  221 0000022C E8B3 1040       ldmia            r3!, { r6, r12 }
  222 00000230 FB06 EE0B       mla              r14, r6, r11, r14
  223 00000234 FB0C EE0A       mla              r14, r12, r10, r14
  224 00000238 E8B3 1040       ldmia            r3!, { r6, r12 }
  225 0000023C FB06 EE09       mla              r14, r6, r9, r14
  226 00000240 FB0C EE08       mla              r14, r12, r8, r14
  227 00000244 1E7F            subs             r7, r7, #1
  228 00000246 D1EF            bne              dloop1
  229 00000248         
  230 00000248 F002 0703       and              r7, r2, #3  ; get remaining sam
                                                            ples to be filtered
                                                            
  231 0000024C         
  232 0000024C 4A17            ldr              r2, =jumptable2
  233 0000024E EB02 0287       add              r2, r7, lsl #2
  234 00000252 6812            ldr              r2, [r2]
  235 00000254 4710            bx               r2          ; jump into accumul
                                                            ator chain
  236 00000256         jumptable2
  237 00000256 00 00 00000000  dcd              dsave
  238 0000025C 00000000        dcd              oneleft
  239 00000260 00000000        dcd              twoleft
  240 00000264 00000000        dcd              threeleft
  241 00000268         threeleft
  242 00000268 F855 CD04       ldr              r12, [r5, #-4]!
  243 0000026C F853 8B04       ldr              r8, [r3], #4
  244 00000270 FB0C EE08       mla              r14, r12, r8, r14
  245 00000274         twoleft
  246 00000274 F855 CD04       ldr              r12, [r5, #-4]!
  247 00000278 F853 8B04       ldr              r8, [r3], #4
  248 0000027C FB0C EE08       mla              r14, r12, r8, r14
  249 00000280         oneleft
  250 00000280 F855 CD04       ldr              r12, [r5, #-4]!
  251 00000284 F853 8B04       ldr              r8, [r3], #4
  252 00000288 FB0C EE08       mla              r14, r12, r8, r14
  253 0000028C         
  254 0000028C         dsave



ARM Macro Assembler    Page 6 


  255 0000028C F8D3 C000       ldr              r12, [r3]   ; load residual
  256 00000290 FA4E FE01       asr              r14, r1
  257 00000294 44E6            add              r14, r12, r14 ; shift sum by ql
                                                            evel bits and add r
                                                            esidual
  258 00000296 F843 EB04       str              r14, [r3], #4 ; store result
  259 0000029A EBA3 0382       sub              r3, r3, r2, lsl #2 ; and wrap h
                                                            istory pointer back
                                                             to next first pos
  260 0000029E 1E40            subs             r0, r0, #1  ; are we done?
  261 000002A0 D1BC            bne              default     ; no, prepare for n
                                                            ext sample
  262 000002A2         
  263 000002A2         exit
  264 000002A2 E8BD 8FF0       ldmia            sp!, { r4-r11, pc }
  265 000002A6         
  266 000002A6                 END
              00 00 00000000 
              00000000 
Command Line: --xref --diag_suppress=9931 --cpu=Cortex-M7.fp.dp --apcs=interwor
k --depend=demo\arm.d -odemo\arm.o -I.\RTE\_H750-FMC-SDMMC-IIS-TOUCH -IC:\Keil_
v5\Arm\Packs\ARM\CMSIS\5.8.0\CMSIS\Core\Include -IC:\Keil_v5\Arm\Packs\Keil\STM
32H7xx_DFP\2.8.0\Drivers\CMSIS\Device\ST\STM32H7xx\Include --predefine="__MICRO
LIB SETA 1" --predefine="__UVISION_VERSION SETA 535" --predefine="_RTE_ SETA 1"
 --predefine="STM32H750xx SETA 1" --predefine="_RTE_ SETA 1" --list=arm.lst ..\
libffmpegFLAC\arm.S



ARM Macro Assembler    Page 1 Alphabetic symbol ordering
Relocatable symbols

LPC_DECODE 00000000

Symbol: LPC_DECODE
   Definitions
      At line 9 in file ..\libffmpegFLAC\arm.S
   Uses
      None
Comment: LPC_DECODE unused
default 0000021C

Symbol: default
   Definitions
      At line 213 in file ..\libffmpegFLAC\arm.S
   Uses
      At line 26 in file ..\libffmpegFLAC\arm.S
      At line 261 in file ..\libffmpegFLAC\arm.S

dloop1 00000228

Symbol: dloop1
   Definitions
      At line 219 in file ..\libffmpegFLAC\arm.S
   Uses
      At line 228 in file ..\libffmpegFLAC\arm.S
Comment: dloop1 used once
dsave 0000028C

Symbol: dsave
   Definitions
      At line 254 in file ..\libffmpegFLAC\arm.S
   Uses
      At line 237 in file ..\libffmpegFLAC\arm.S
Comment: dsave used once
exit 000002A2

Symbol: exit
   Definitions
      At line 263 in file ..\libffmpegFLAC\arm.S
   Uses
      At line 24 in file ..\libffmpegFLAC\arm.S
      At line 33 in file ..\libffmpegFLAC\arm.S
      At line 72 in file ..\libffmpegFLAC\arm.S
      At line 96 in file ..\libffmpegFLAC\arm.S
      At line 117 in file ..\libffmpegFLAC\arm.S
      At line 136 in file ..\libffmpegFLAC\arm.S
      At line 153 in file ..\libffmpegFLAC\arm.S
      At line 169 in file ..\libffmpegFLAC\arm.S
      At line 184 in file ..\libffmpegFLAC\arm.S
      At line 198 in file ..\libffmpegFLAC\arm.S
      At line 211 in file ..\libffmpegFLAC\arm.S

jumptable1 00000020

Symbol: jumptable1
   Definitions
      At line 32 in file ..\libffmpegFLAC\arm.S
   Uses
      At line 27 in file ..\libffmpegFLAC\arm.S
Comment: jumptable1 used once



ARM Macro Assembler    Page 2 Alphabetic symbol ordering
Relocatable symbols

jumptable2 00000256

Symbol: jumptable2
   Definitions
      At line 236 in file ..\libffmpegFLAC\arm.S
   Uses
      At line 232 in file ..\libffmpegFLAC\arm.S
Comment: jumptable2 used once
loop1 00000206

Symbol: loop1
   Definitions
      At line 203 in file ..\libffmpegFLAC\arm.S
   Uses
      At line 210 in file ..\libffmpegFLAC\arm.S
Comment: loop1 used once
loop2 000001E2

Symbol: loop2
   Definitions
      At line 188 in file ..\libffmpegFLAC\arm.S
   Uses
      At line 197 in file ..\libffmpegFLAC\arm.S
Comment: loop2 used once
loop3 000001BC

Symbol: loop3
   Definitions
      At line 173 in file ..\libffmpegFLAC\arm.S
   Uses
      At line 183 in file ..\libffmpegFLAC\arm.S
Comment: loop3 used once
loop4 00000192

Symbol: loop4
   Definitions
      At line 157 in file ..\libffmpegFLAC\arm.S
   Uses
      At line 168 in file ..\libffmpegFLAC\arm.S
Comment: loop4 used once
loop5 00000164

Symbol: loop5
   Definitions
      At line 140 in file ..\libffmpegFLAC\arm.S
   Uses
      At line 152 in file ..\libffmpegFLAC\arm.S
Comment: loop5 used once
loop6 0000012E

Symbol: loop6
   Definitions
      At line 121 in file ..\libffmpegFLAC\arm.S
   Uses
      At line 135 in file ..\libffmpegFLAC\arm.S
Comment: loop6 used once
loop7 000000F0

Symbol: loop7



ARM Macro Assembler    Page 3 Alphabetic symbol ordering
Relocatable symbols

   Definitions
      At line 100 in file ..\libffmpegFLAC\arm.S
   Uses
      At line 116 in file ..\libffmpegFLAC\arm.S
Comment: loop7 used once
loop8 000000AA

Symbol: loop8
   Definitions
      At line 76 in file ..\libffmpegFLAC\arm.S
   Uses
      At line 95 in file ..\libffmpegFLAC\arm.S
Comment: loop8 used once
loop9 0000004C

Symbol: loop9
   Definitions
      At line 47 in file ..\libffmpegFLAC\arm.S
   Uses
      At line 71 in file ..\libffmpegFLAC\arm.S
Comment: loop9 used once
lpc_decode_arm 00000000

Symbol: lpc_decode_arm
   Definitions
      At line 12 in file ..\libffmpegFLAC\arm.S
   Uses
      At line 11 in file ..\libffmpegFLAC\arm.S
Comment: lpc_decode_arm used once
oneleft 00000280

Symbol: oneleft
   Definitions
      At line 249 in file ..\libffmpegFLAC\arm.S
   Uses
      At line 238 in file ..\libffmpegFLAC\arm.S
Comment: oneleft used once
order1 00000200

Symbol: order1
   Definitions
      At line 200 in file ..\libffmpegFLAC\arm.S
   Uses
      At line 34 in file ..\libffmpegFLAC\arm.S
Comment: order1 used once
order2 000001DE

Symbol: order2
   Definitions
      At line 186 in file ..\libffmpegFLAC\arm.S
   Uses
      At line 35 in file ..\libffmpegFLAC\arm.S
Comment: order2 used once
order3 000001B8

Symbol: order3
   Definitions
      At line 171 in file ..\libffmpegFLAC\arm.S
   Uses



ARM Macro Assembler    Page 4 Alphabetic symbol ordering
Relocatable symbols

      At line 36 in file ..\libffmpegFLAC\arm.S
Comment: order3 used once
order4 0000018E

Symbol: order4
   Definitions
      At line 155 in file ..\libffmpegFLAC\arm.S
   Uses
      At line 37 in file ..\libffmpegFLAC\arm.S
Comment: order4 used once
order5 00000160

Symbol: order5
   Definitions
      At line 138 in file ..\libffmpegFLAC\arm.S
   Uses
      At line 38 in file ..\libffmpegFLAC\arm.S
Comment: order5 used once
order6 0000012A

Symbol: order6
   Definitions
      At line 119 in file ..\libffmpegFLAC\arm.S
   Uses
      At line 39 in file ..\libffmpegFLAC\arm.S
Comment: order6 used once
order7 000000EC

Symbol: order7
   Definitions
      At line 98 in file ..\libffmpegFLAC\arm.S
   Uses
      At line 40 in file ..\libffmpegFLAC\arm.S
Comment: order7 used once
order8 000000A6

Symbol: order8
   Definitions
      At line 74 in file ..\libffmpegFLAC\arm.S
   Uses
      At line 41 in file ..\libffmpegFLAC\arm.S
Comment: order8 used once
order9 00000048

Symbol: order9
   Definitions
      At line 45 in file ..\libffmpegFLAC\arm.S
   Uses
      At line 42 in file ..\libffmpegFLAC\arm.S
Comment: order9 used once
threeleft 00000268

Symbol: threeleft
   Definitions
      At line 241 in file ..\libffmpegFLAC\arm.S
   Uses
      At line 240 in file ..\libffmpegFLAC\arm.S
Comment: threeleft used once
twoleft 00000274



ARM Macro Assembler    Page 5 Alphabetic symbol ordering
Relocatable symbols


Symbol: twoleft
   Definitions
      At line 245 in file ..\libffmpegFLAC\arm.S
   Uses
      At line 239 in file ..\libffmpegFLAC\arm.S
Comment: twoleft used once
29 symbols
366 symbols in table
